:1008A700020D0000011100010B01011400020F00ED
:0B08B70000010C0002120000010A000A
:10031100C2A57FF47E01120A15D2A57FF47E0112D7
:100321000A15E4F5141209BA120A2A1206F18F11FC
:10033100E50BFB7A007525027D0F7F0112099DE512
:100341000E450D70E6E514D3940A5018D297D2A247
:10035100C291C294C296C2A1D290D293D292D295A6
:10036100D2A0D2A3E514C3940B401EE514940F5000
:1003710018D291D294D297D2A2C292C295D2A0D2CF
:10038100A3C296C2A1D290D293E514C3940F401E8A
:10039100E514941B5018D291D294C297C2A2D29262
:1003A100D295D2A0D2A3D296D2A1C290C293E51483
:1003B100C3941B401EE51494205018D291D294D2BC
:1003C10097D2A2D292D295C2A0C2A3D296D2A1C2F2
:1003D10090C293E514D39420500302032CE4F51446
:0303E10002032CE8
:03000B000203E409
:0403E400C0E0C0D0E5
:1003E800758A66758CFC0509E50970020508051310
:1003F800E51370020512D39414E5129400400963C2
:100408000AFF751200751300C3E50994E8E508941E
:10041800034018E50E450D700CE50C7008050B053A
:1004280014F508F509750800750900E514B40B03FF
:10043800750B01E514B40F03750B01E514B41B0328
:10044800750B01E514B42003750B01E51164016017
:1004580008E50E6401450D704F750C01750D0075AA
:100468000E010510E5107002050FC39488E50F947E
:1004780013400F750F00751000750D00750E00758F
:100488000C00E50E6401450D701ED291D294D297EE
:10049800D2A2D292D295D2A0D2A3C296C2A1C29021
:0804A800C293E50A6002B2A54F
:0504B000D0D0D0E032C5
:100A1500EF4E6010007D027CC7DCFEDDFCEF1F7031
:040A2500EF1E80EC54
:010A290022AA
:0908C200072A1A03130E2D370456
:050A6100C2B5C2B6227F
:050752002DFDEE3CFC52
:060757008C458D46AB0746
:10075D00D2B5E4FD74017E00A805088005C333CE33
:10076D0033CED8F9FFEBF582EF558224FF92B4D248
:10077D00B6C2B60DBD08DDE4FD74017E00A8050806
:10078D008005C333CE33CED8F9FFE5455EFEE54691
:10079D005F4E24FF92B4D2B6C2B60DBD08DBC2B512
:0107AD002229
:0207AE00AD0795
:1007B000E4F9430501D2B5FB74017E00A80308806B
:1007C00005C333CE33CED8F9FFEDF582EF55822441
:1007D000FF92B4C2B6D2B60BBB08DDE4FBD2B6C200
:1007E000B630B40D7401A803088002C333D8FC42AC
:0B07F000010BBB08E8C2B5C2B4AF01AA
:0107FB0022DB
:10019700E4FDFC7F8E120757E52A75F00A1204B5B5
:1001A700FF3395E0FEEFC4F8540FC868FFEEC45460
:1001B700F048FEE52A75F00A1204B5ADF0ED339567
:1001C700E0FCEF7F8C120752E52B75F00A1204B59D
:1001D700FF3395E0FEEFC4F8540FC868FFEEC45430
:1001E700F048FEE52B75F00A1204B5ADF0ED339536
:1001F700E0FCEF7F88120752E52C75F00A1204B570
:10020700FF3395E0FEEFC4F8540FC868FFEEC454FF
:10021700F048FEE52C75F00A1204B5ADF0ED339504
:10022700E0FCEF2DFDEE3CFC7F86120757E52D75B0
:10023700F00A1204B5FF3395E0FEEFC4F8540FC877
:1002470068FFEEC454F048FEE52D75F00A1204B5B8
:10025700ADF0ED3395E0FCEF2DFDEE3CFC7F841215
:100267000757E52E75F00A1204B5FF3395E0FEEF48
:10027700C4F8540FC868FFEEC454F048FEE52E7565
:10028700F00A1204B5ADF0ED3395E0FCEF2DFDEE6D
:100297003CFC7F82120757E52F75F00A1204B5FF61
:1002A7003395E0FEEFC4F8540FC868FFEEC454F06E
:1002B70048FEE52F75F00A1204B5ADF0ED3395E071
:1002C700FCEF2DFDEE3CFC7F80120757E53075F003
:1002D7000A1204B5FF3395E0FEEFC4F8540FC8685F
:1002E700FFEEC454F048FEE53075F00A1204B5ADD0
:1002F700F0ED3395E0FCEF2DFDEE3CFC7F8A120715
:0A030700577D807C007F8E020757AF
:10056B007F8C1207AEEFC4540F75F00AA4FEEF5444
:10057B000F2EF52A7F881207AEEFC4540F75F00AC1
:10058B00A4FEEF540F2EF52B7F861207AEEFC4544B
:10059B000F75F00AA4FEEF540F2EF52C7F84120773
:1005AB00AEEFC4540F75F00AA4FEEF540F2EF52DC9
:1005BB007F821207AEEFC4540F75F00AA4FEEF54FE
:1005CB000F2EF52E7F801207AEEFC4540F75F00A75
:1005DB00A4FEEF540F2EF52F7F8A1207AEEFC454F3
:0C05EB000F75F00AA4FEEF540F2EF5303F
:0105F70022E1
:1006F100E4F52120B1137F14FE120A1530B1FD7FFC
:10070100147E00120A1575210120B0147F147E0099
:10071100120A1530B0FD7F147E00120A15752102F0
:1007210020B2147F147E00120A1530B2FD7F147EB0
:1007310000120A1575210320B3147F147E00120ADA
:100741001530B3FD7F147E00120A15752104AF2107
:010751002285
:060A3E00C2A58F80D2A7C3
:080A44007F027EEFDEFEDFFC05
:010A4C002287
:0A0A4D00C2A6120A3EC2A7020A4424
:10097F00CFCDCFCECCCE1205167C007D0A12051638
:04098F00ED2430FF24
:0A099300D2A6120A3EC2A7020A44CF
:1009FF00AE07BE0104ED148006BE0209ED243F448C
:060A0F0080FF120A4D22D7
:100A2A007F38120A4D7F0C120A4D7F06120A4D7F3B
:040A3A0001020A4D5E
:0A0A5700AC031209FFAF040209937B
:06093A008B428A43894450
:100940001209FFE4FDAB42AA43A9448D82758300DE
:0C0950001204D7FF60061209930D80E925
:01095C002278
:0C08DA007F0AEA24FFFDE434FFFC7E00EE
:0808E6008E268F278C288D2936
:1008EE007F017E00E4FBEBC39529E5286480F87454
:0E08FE008098500AAC26AD271205040B80E846
:01090C0022C8
:04099D008A238B24FA
:1009A1001209FFAA25EAD39400400D1208DAAC23FC
:0809B100AD2412097F1A80ED4C
:0109B900221B
:1007FC001209FFC3EA64809480400B7F2B1209938B
:10080C008A368B37800E7F2D120993C3E49BF53704
:10081C00E49AF536AA35EAD39400400D1208DAAC06
:09082C0036AD3712097F1A80ED88
:0108350022A0
:040836008A3A8B3B34
:10083A001209FFAA3CEAD3940040297F101208DC6F
:10084A00AC3AAD3BCFCDCFCECCCE120516EF540F7E
:10085A00FEC3940AEE5004243080022437FF1209A2
:04086A00931A80D18C
:01086E002267
:04086F008A3F8B40F1
:100873001209FFAA41EAD394004028EA24FFFDE4C9
:1008830034FFFC7F027E001208E6AC3FAD40CFCDC3
:10089300CFCECCCE120516EF54012430FF120993AC
:0308A3001A80D2E6
:0108A600222F
:10000E00E4F5477590FFC2932097137F14FE120AF2
:10001E00153097FD7F147E00120A15754701209644
:10002E00147F147E00120A153096FD7F147E001286
:10003E000A157547052095147F147E00120A153097
:10004E0095FD7F147E00120A157547092094147FC2
:10005E00147E00120A153094FD7F147E00120A15CC
:10006E0075470D7590FFC2922097147F147E001273
:10007E000A153097FD7F147E00120A15754702206F
:10008E0096147F147E00120A153096FD7F147E00A2
:10009E00120A157547062095147F147E00120A1554
:1000AE003095FD7F147E00120A1575470A209414B0
:1000BE007F147E00120A153094FD7F147E00120A02
:1000CE001575470E7590FFC2912097147F147E0010
:1000DE00120A153097FD7F147E00120A157547031C
:1000EE002096147F147E00120A153096FD7F147E22
:1000FE0000120A157547072095147F147E00120A08
:10010E00153095FD7F147E00120A1575470B20944D
:10011E00147F147E00120A153094FD7F147E001297
:10012E000A1575470F7590FFC2902097147F147EA5
:10013E0000120A153097FD7F147E00120A157547BE
:10014E00042096147F147E00120A153096FD7F143B
:10015E007E00120A157547082095147F147E001232
:10016E000A153095FD7F147E00120A1575470C2076
:10017E0094147F147E00120A153094FD7F147E00B5
:08018E00120A15754710AF4776
:010196002246
:02090D00AD0734
:10090F00E4FB74807E00A803088006CEA2E713CE16
:10091F0013D8F8FFEDF582EF558224FF92B4D2B6CB
:0A092F00C2B60BBB08DCD2B5C2B59E
:01093900229B
:050A6600C2B6C2B5227A
:10095D00AA07AF0512090DAF027480A8070880021F
:10096D00C313D8FCF4F5807F017E00120A15758043
:02097D00FF2257
:0E08CB000C153F065B4F666D7D077F6F40800A
:10068400EF14B40800505490069975F003A4C58380
:1006940025F0C583730206B10206B50206B9020647
:1006A400BD0206C10206C90206D10206D9D2A4803F
:1006B4000ED2A48012D2A48016D2A4801AC2A4D2CC
:1006C400A3D2A28016C2A4D2A3C2A2800EC2A4C284
:1006D400A3D2A28006C2A4C2A3C2A274152DF8E6B6
:0D06E400F5807F017E00120A15E4F58022EA
:1009BA005389F0438901758A66758CFCC28DD28C85
:0709CA00D2A9D2AFC2B9228D
:1009D10075984043878053890F438920758BF4753F
:0709E1008DF4C2ABD28E229F
:080003008F993099FDC299228A
:1009E80053890F438910758B66758DFCC28FD28E23
:0709F800D2ABD2AFC2BB225B
:030000000205F8FE
:0C05F800787FE4F6D8FD75814702063FCD
:1004B500C2D530F707B2D563F0FF05F030E70CB2CF
:1004C500D5F4048463F0FF05F080018430D502F48F
:0204D5000422FF
:1004D700BB010CE58229F582E5833AF583E02250DA
:1004E70006E92582F8E622BBFE06E92582F8E22224
:0D04F700E58229F582E5833AF583E493223E
:10050400EF8DF0A4A8F0CF8CF0A428CE8DF0A42E0B
:02051400FE22C5
:10051600BC000BBE0029EF8DF084FFADF022E4CCC9
:10052600F875F008EF2FFFEE33FEEC33FCEE9DEC92
:10053600984005FCEE9DFE0FD5F0E9E4CEFD22EDD8
:10054600F8F5F0EE8420D21CFEADF075F008EF2F22
:10055600FFED33FD4007985006D5F0F222C398FD13
:050566000FD5F0EA22B0
:10060400020311E493A3F8E493A34003F68001F2F8
:1006140008DFF48029E493A3F85407240CC8C333F7
:10062400C4540F4420C8834004F456800146F6DFC6
:10063400E4800B01020408102040809008A7E47EA7
:10064400019360BCA3FF543F30E509541FFEE493BB
:10065400A360010ECF54C025E060A840B8E493A382
:10066400FAE493A3F8E493A3C8C582C8CAC583CAAD
:10067400F0A3C8C582C8CAC583CADFE9DEE780BE65
:0108D900001E
:00000001FF
