:10089900020D0000011100010B01011400020F00FB
:0B08A90000010C0002120000010A0018
:1003E600E4F5141209AC120A1C1206E38F11E50B90
:1003F600FB7A007525027D0F7F0112098FE50E45F8
:100406000D70E6E514D3940A5018D297D2A2C29181
:10041600C294C296C2A1D290D293D292D295D2A0C1
:10042600D2A3E514C3940B401EE514940F5018D2C2
:1004360091D294D297D2A2C292C295D2A0D2A3C28E
:1004460096C2A1D290D293E514C3940F401EE51430
:10045600941B5018D291D294C297C2A2D292D2952E
:10046600D2A0D2A3D296D2A1C290C293E514C394CD
:100476001B401EE51494205018D291D294D297D2E4
:10048600A2D292D295C2A0C2A3D296D2A1C290C243
:1004960093E514D3942050030203EFE4F51402030A
:0104A600EF66
:03000B00020311DC
:04031100C0E0C0D0B8
:10031500758A66758CFC0509E509700205080513E3
:10032500E51370020512C39464E512940040097543
:100335000A01751200751300C3E50994E8E50894F0
:10034500034018E50E450D700CE50C7008050B050E
:1003550014F508F509750800750900E514B40B03D3
:10036500750B01E514B40F03750B01E514B41B03FC
:10037500750B01E514B42003750B01E511640160EB
:1003850008E50E6401450D7053750C01750D00757A
:100395000E010510E5107002050FC39488E50F9452
:1003A50013400F750F00751000750D00750E007563
:1003B5000C00E50E6401450D7022D291D294D297BE
:1003C500D2A2D292D295D2A0D2A3C296C2A1C290F5
:0C03D500C293E50AB40105B2A4750A0049
:0503E100D0D0D0E03295
:100A0700EF4E6010007D027CC7DCFEDDFCEF1F703F
:040A1700EF1E80EC62
:010A1B0022B8
:0908B400072A1A03130E2D370464
:050A5300C2B5C2B6228D
:050744002DFDEE3CFC60
:060749008C458D46AB0754
:10074F00D2B5E4FD74017E00A805088005C333CE41
:10075F0033CED8F9FFEBF582EF558224FF92B4D256
:10076F00B6C2B60DBD08DDE4FD74017E00A8050814
:10077F008005C333CE33CED8F9FFE5455EFEE5469F
:10078F005F4E24FF92B4D2B6C2B60DBD08DBC2B520
:01079F002237
:0207A000AD07A3
:1007A200E4F9430501D2B5FB74017E00A803088079
:1007B20005C333CE33CED8F9FFEDF582EF5582244F
:1007C200FF92B4C2B6D2B60BBB08DDE4FBD2B6C20E
:1007D200B630B40D7401A803088002C333D8FC42BA
:0B07E200010BBB08E8C2B5C2B4AF01B8
:0107ED0022E9
:10019700E4FDFC7F8E120749E52A75F00A1204A7D1
:1001A700FF3395E0FEEFC4F8540FC868FFEEC45460
:1001B700F048FEE52A75F00A1204A7ADF0ED339575
:1001C700E0FCEF7F8C120744E52B75F00A1204A7B9
:1001D700FF3395E0FEEFC4F8540FC868FFEEC45430
:1001E700F048FEE52B75F00A1204A7ADF0ED339544
:1001F700E0FCEF7F88120744E52C75F00A1204A78C
:10020700FF3395E0FEEFC4F8540FC868FFEEC454FF
:10021700F048FEE52C75F00A1204A7ADF0ED339512
:10022700E0FCEF2DFDEE3CFC7F86120749E52D75BE
:10023700F00A1204A7FF3395E0FEEFC4F8540FC885
:1002470068FFEEC454F048FEE52D75F00A1204A7C6
:10025700ADF0ED3395E0FCEF2DFDEE3CFC7F841215
:100267000749E52E75F00A1204A7FF3395E0FEEF64
:10027700C4F8540FC868FFEEC454F048FEE52E7565
:10028700F00A1204A7ADF0ED3395E0FCEF2DFDEE7B
:100297003CFC7F82120749E52F75F00A1204A7FF7D
:1002A7003395E0FEEFC4F8540FC868FFEEC454F06E
:1002B70048FEE52F75F00A1204A7ADF0ED3395E07F
:1002C700FCEF2DFDEE3CFC7F80120749E53075F011
:1002D7000A1204A7FF3395E0FEEFC4F8540FC8686D
:1002E700FFEEC454F048FEE53075F00A1204A7ADDE
:1002F700F0ED3395E0FCEF2DFDEE3CFC7F8A120715
:0A030700497D807C007F8E020749CB
:10055D007F8C1207A0EFC4540F75F00AA4FEEF5460
:10056D000F2EF52A7F881207A0EFC4540F75F00ADD
:10057D00A4FEEF540F2EF52B7F861207A0EFC45467
:10058D000F75F00AA4FEEF540F2EF52C7F84120781
:10059D00A0EFC4540F75F00AA4FEEF540F2EF52DE5
:1005AD007F821207A0EFC4540F75F00AA4FEEF541A
:1005BD000F2EF52E7F801207A0EFC4540F75F00A91
:1005CD00A4FEEF540F2EF52F7F8A1207A0EFC4540F
:0C05DD000F75F00AA4FEEF540F2EF5304D
:0105E90022EF
:1006E300E4F52120B1137F14FE120A0730B1FD7F18
:1006F300147E00120A0775210120B0147F147E00B6
:10070300120A0730B0FD7F147E00120A077521021A
:1007130020B2147F147E00120A0730B2FD7F147ECC
:1007230000120A0775210320B3147F147E00120AF6
:100733000730B3FD7F147E00120A07752104AF2131
:010743002293
:060A3000C2A58F80D2A7D1
:080A36007F027EEFDEFEDFFC13
:010A3E002295
:0A0A3F00C2A6120A30C2A7020A364E
:10097100CFCDCFCECCCE1205087C007D0A12050862
:04098100ED2430FF32
:0A098500D2A6120A30C2A7020A36F9
:1009F100AE07BE0104ED148006BE0209ED243F449A
:060A010080FF120A3F22F3
:100A1C007F38120A3F7F0C120A3F7F06120A3F7F73
:040A2C0001020A3F7A
:0A0A4900AC031209F1AF04020985A5
:06092C008B428A4389445E
:100932001209F1E4FDAB42AA43A9448D82758300FA
:0C0942001204C9FF60061209850D80E94F
:01094E002286
:0C08CC007F0AEA24FFFDE434FFFC7E00FC
:0808D8008E268F278C288D2944
:1008E0007F017E00E4FBEBC39529E5286480F87462
:0E08F0008098500AAC26AD271204F60B80E863
:0108FE0022D7
:04098F008A238B2408
:100993001209F1AA25EAD39400400D1208CCAC2326
:0809A300AD241209711A80ED68
:0109AB002229
:1007EE001209F1C3EA64809480400B7F2B120985B5
:1007FE008A368B37800E7F2D120985C3E49BF53721
:10080E00E49AF536AA35EAD39400400D1208CCAC22
:09081E0036AD371209711A80EDA4
:0108270022AE
:040828008A3A8B3B42
:10082C001209F1AA3CEAD3940040297F101208CE99
:10083C00AC3AAD3BCFCDCFCECCCE120508EF540F9A
:10084C00FEC3940AEE5004243080022437FF1209B0
:04085C00851A80D1A8
:010860002275
:040861008A3F8B40FF
:100865001209F1AA41EAD394004028EA24FFFDE4E5
:1008750034FFFC7F027E001208D8AC3FAD40CFCDDF
:10088500CFCECCCE120508EF54012430FF120985D6
:030895001A80D2F4
:01089800223D
:10000E00E4F5477590FFC2932097137F14FE120AF2
:10001E00073097FD7F147E00120A07754701209660
:10002E00147F147E00120A073096FD7F147E001294
:10003E000A077547052095147F147E00120A0730B3
:10004E0095FD7F147E00120A077547092094147FD0
:10005E00147E00120A073094FD7F147E00120A07E8
:10006E0075470D7590FFC2922097147F147E001273
:10007E000A073097FD7F147E00120A07754702208B
:10008E0096147F147E00120A073096FD7F147E00B0
:10009E00120A077547062095147F147E00120A0770
:1000AE003095FD7F147E00120A0775470A209414BE
:1000BE007F147E00120A073094FD7F147E00120A10
:1000CE000775470E7590FFC2912097147F147E001E
:1000DE00120A073097FD7F147E00120A0775470338
:1000EE002096147F147E00120A073096FD7F147E30
:1000FE0000120A077547072095147F147E00120A16
:10010E00073095FD7F147E00120A0775470B209469
:10011E00147F147E00120A073094FD7F147E0012A5
:10012E000A0775470F7590FFC2902097147F147EB3
:10013E0000120A073097FD7F147E00120A077547DA
:10014E00042096147F147E00120A073096FD7F1449
:10015E007E00120A077547082095147F147E001240
:10016E000A073095FD7F147E00120A0775470C2092
:10017E0094147F147E00120A073094FD7F147E00C3
:08018E00120A07754710AF4784
:010196002246
:0208FF00AD0743
:10090100E4FB74807E00A803088006CEA2E713CE24
:1009110013D8F8FFEDF582EF558224FF92B4D2B6D9
:0A092100C2B60BBB08DCD2B5C2B5AC
:01092B0022A9
:050A5800C2B6C2B52288
:10094F00AA07AF051208FFAF027480A8070880023C
:10095F00C313D8FCF4F5807F017E00120A0775805F
:02096F00FF2265
:0E08BD000C153F065B4F666D7D077F6F408018
:10067600EF14B40800505490068B75F003A4C5839C
:1006860025F0C583730206A30206A70206AB02067F
:10069600AF0206B30206BB0206C30206CBD2A48093
:1006A6000ED2A48012D2A48016D2A4801AC2A4D2DA
:1006B600A3D2A28016C2A4D2A3C2A2800EC2A4C292
:1006C600A3D2A28006C2A4C2A3C2A274152DF8E6C4
:0D06D600F5807F017E00120A07E4F5802206
:1009AC005389F0438901758A66758CFCC28DD28C93
:0709BC00D2A9D2AFC2B9229B
:1009C30075984043878053890F438920758BF4754D
:0709D3008DF4C2ABD28E22AD
:080003008F993099FDC299228A
:1009DA0053890F438910758B66758DFCC28FD28E31
:0709EA00D2ABD2AFC2BB2269
:030000000205EA0C
:0C05EA00787FE4F6D8FD758147020631E9
:1004A700C2D530F707B2D563F0FF05F030E70CB2DD
:1004B700D5F4048463F0FF05F080018430D502F49D
:0204C70004220D
:1004C900BB010CE58229F582E5833AF583E02250E8
:1004D90006E92582F8E622BBFE06E92582F8E22232
:0D04E900E58229F582E5833AF583E493224C
:1004F600EF8DF0A4A8F0CF8CF0A428CE8DF0A42E1A
:02050600FE22D3
:10050800BC000BBE0029EF8DF084FFADF022E4CCD7
:10051800F875F008EF2FFFEE33FEEC33FCEE9DECA0
:10052800984005FCEE9DFE0FD5F0E9E4CEFD22EDE6
:10053800F8F5F0EE8420D21CFEADF075F008EF2F30
:10054800FFED33FD4007985006D5F0F222C398FD21
:050558000FD5F0EA22BE
:1005F6000203E6E493A3F8E493A34003F68001F232
:1006060008DFF48029E493A3F85407240CC8C33305
:10061600C4540F4420C8834004F456800146F6DFD4
:10062600E4800B0102040810204080900899E47EC3
:10063600019360BCA3FF543F30E509541FFEE493C9
:10064600A360010ECF54C025E060A840B8E493A390
:10065600FAE493A3F8E493A3C8C582C8CAC583CABB
:10066600F0A3C8C582C8CAC583CADFE9DEE780BE73
:0108CB00002C
:00000001FF
