:10089E0002170000011B00011601011C00021900C5
:0108AE000049
:100311001206888F1BE4F51C1209471209B7120651
:10032100888F1BE516FB7A007521027D0F7F011274
:10033100092AE518451770E6E51CD3940A5018D22E
:1003410097D2A2C291C294C296C2A1D290D293D2A4
:1003510092D295D2A0D2A3E51CD3940B401FE51CE9
:10036100D3940F5018D291D294D297D2A2C292C2F2
:1003710095D2A0D2A3C296C2A1D290D293E51CD3AA
:10038100940F401FE51CD3941B5018D291D294C2F4
:1003910097C2A2D292D295D2A0D2A3D296D2A1C212
:1003A10090C293E51CD3941B401FE51CD3942050AD
:1003B10018D291D294D297D2A2D292D295C2A0C28F
:1003C100A3D296D2A1C290C293E51CD3942050032C
:0903D10002031FE4F51C02031FE6
:03000B000205A942
:0405A900C0E0C0D01E
:1005AD00758A66758CFC0515E51570020514C394E6
:1005BD00E8E5149403400A0516051C75140075151D
:1005CD0000E51B64017042F517751801051AE51A4F
:1005DD0070020519C39488E5199413400C75190020
:1005ED00751A00751700751800E518640145177028
:1005FD0018D291D294D297D2A2D292D295D2A0D221
:09060D00A3C296C2A1C290C293DF
:05061600D0D0D0E0325D
:1009A200EF4E6010007D027CC7DCFEDDFCEF1F70A5
:0409B200EF1E80ECC8
:0109B600221E
:0908AF0007261A03130E2D37046D
:0509EE00C2B5C2B622F3
:0506E9002DFDEE3CFCBC
:0606EE008C418D42AB07B8
:1006F400D2B5E4FD74017E00A805088005C333CE9D
:1007040033CED8F9FFEBF582EF558224FF92B4D2B1
:10071400B6C2B60DBD08DDE4FD74017E00A805086F
:100724008005C333CE33CED8F9FFE5415EFEE54202
:100734005F4E24FF92B4D2B6C2B60DBD08DBC2B57B
:010744002292
:02074500AD07FE
:10074700E4F9430501D2B5FB74017E00A8030880D4
:1007570005C333CE33CED8F9FFEDF582EF558224AA
:10076700FF92B4C2B6D2B60BBB08DDE4FBD2B6C269
:10077700B630B40D7401A803088002C333D8FC4215
:0B078700010BBB08E8C2B5C2B4AF0113
:010792002244
:10019700E4FDFC7F8E1206EEE52675F00A1203DAFF
:1001A700FF3395E0FEEFC4F8540FC868FFEEC45460
:1001B700F048FEE52675F00A1203DAADF0ED339547
:1001C700E0FCEF7F8C1206E9E52775F00A1203DAE7
:1001D700FF3395E0FEEFC4F8540FC868FFEEC45430
:1001E700F048FEE52775F00A1203DAADF0ED339516
:1001F700E0FCEF7F881206E9E52875F00A1203DABA
:10020700FF3395E0FEEFC4F8540FC868FFEEC454FF
:10021700F048FEE52875F00A1203DAADF0ED3395E4
:10022700E0FCEF2DFDEE3CFC7F861206EEE529751E
:10023700F00A1203DAFF3395E0FEEFC4F8540FC853
:1002470068FFEEC454F048FEE52975F00A1203DA98
:10025700ADF0ED3395E0FCEF2DFDEE3CFC7F841215
:1002670006EEE52A75F00A1203DAFF3395E0FEEF92
:10027700C4F8540FC868FFEEC454F048FEE52A7569
:10028700F00A1203DAADF0ED3395E0FCEF2DFDEE49
:100297003CFC7F821206EEE52B75F00A1203DAFFAB
:1002A7003395E0FEEFC4F8540FC868FFEEC454F06E
:1002B70048FEE52B75F00A1203DAADF0ED3395E051
:1002C700FCEF2DFDEE3CFC7F801206EEE52C75F071
:1002D7000A1203DAFF3395E0FEEFC4F8540FC8683B
:1002E700FFEEC454F048FEE52C75F00A1203DAADB0
:1002F700F0ED3395E0FCEF2DFDEE3CFC7F8A120616
:0A030700EE7D807C007F8E0206EE82
:100490007F8C120745EFC4540F75F00AA4FEEF5489
:1004A0000F2EF5267F88120745EFC4540F75F00A0A
:1004B000A4FEEF540F2EF5277F86120745EFC45494
:1004C0000F75F00AA4FEEF540F2EF5287F84120753
:1004D00045EFC4540F75F00AA4FEEF540F2EF52912
:1004E0007F82120745EFC4540F75F00AA4FEEF5443
:1004F0000F2EF52A7F80120745EFC4540F75F00ABE
:10050000A4FEEF540F2EF52B7F8A120745EFC4543B
:0C0510000F75F00AA4FEEF540F2EF52C1E
:01051C0022BC
:10068800E4F51D20B1137F14FE1209A230B1FD7FDD
:10069800147E001209A2751D0120B0147F147E007B
:1006A8001209A230B0FD7F147E001209A2751D0246
:1006B80020B2147F147E001209A230B2FD7F147E8E
:1006C800001209A2751D0320B3147F147E001209BD
:1006D800A230B3FD7F147E001209A2751D04AF1D60
:0106E80022EF
:0609CB00C2A58F80D2A737
:0809D1007F027EEFDEFEDFFC79
:0109D90022FB
:0A09DA00C2A61209CBC2A70209D180
:10090C00CFCDCFCECCCE12043B7C007D0A12043B63
:04091C00ED2430FF97
:0A092000D2A61209CBC2A70209D12A
:10098C00AE07BE0104ED148006BE0209ED243F44FF
:06099C0080FF1209DA22BF
:1009B7007F381209DA7F0C1209DA7F061209DA7F0B
:0409C700010209DA46
:0A09E400AC0312098CAF04020920D5
:0608C7008B3E8A3F8940D0
:1008CD0012098CE4FDAB3EAA3FA9408D82758300D1
:0C08DD001203FCFF60061209200D80E9E8
:0108E90022EC
:0C083E007F0AEA24FFFDE434FFFC7E008A
:08084A008E228F238C248D25E2
:100852007F017E00E4FBEBC39525E5246480F874F8
:0E0862008098500AAC22AD231204290B80E8C6
:010870002265
:04092A008A1F8B2075
:10092E0012098CAA21EAD39400400D12083EAC1F86
:08093E00AD2012090C1A80ED36
:01094600228E
:1007930012098CC3EA64809480400B7F2B120920DA
:1007A3008A328B33800E7F2D120920C3E49BF533ED
:1007B300E49AF532AA31EAD39400400D12083EAC14
:0907C30032AD3312090C1A80ED6D
:0107CC00220A
:0407CD008A368B37A6
:1007D10012098CAA38EAD3940040297F10120840EC
:1007E100AC36AD37CFCDCFCECCCE12043BEF540FCC
:1007F100FEC3940AEE5004243080022437FF12090C
:04080100201A80D168
:0108050022D0
:040806008A3B8B3C62
:10080A0012098CAA3DEAD394004028EA24FFFDE4A9
:10081A0034FFFC7F027E0012084AAC3BAD3CCFCDD0
:10082A00CFCECCCE12043BEF54012430FF12092064
:03083A001A80D24F
:01083D002298
:10000E00E4F5437590FFC2932097137F14FE1209F7
:10001E00A23097FD7F147E001209A275430120962F
:10002E00147F147E001209A23096FD7F147E0012FA
:10003E0009A27543052095147F147E001209A23083
:10004E0095FD7F147E001209A27543092094147F3A
:10005E00147E001209A23094FD7F147E001209A2B4
:10006E0075430D7590FFC2922097147F147E001277
:10007E0009A23097FD7F147E001209A2754302205B
:10008E0096147F147E001209A23096FD7F147E0016
:10009E001209A27543062095147F147E001209A240
:1000AE003095FD7F147E001209A275430A20941428
:1000BE007F147E001209A23094FD7F147E00120977
:1000CE00A275430E7590FFC2912097147F147E0087
:1000DE001209A23097FD7F147E001209A275430308
:1000EE002096147F147E001209A23096FD7F147E96
:1000FE00001209A27543072095147F147E00120981
:10010E00A23095FD7F147E001209A275430B209438
:10011E00147F147E001209A23094FD7F147E00120B
:10012E0009A275430F7590FFC2902097147F147E1D
:10013E00001209A23097FD7F147E001209A27543AA
:10014E00042096147F147E001209A23096FD7F14AF
:10015E007E001209A27543082095147F147E0012AA
:10016E0009A23095FD7F147E001209A275430C2062
:10017E0094147F147E001209A23094FD7F147E0029
:08018E001209A2754310AF43F2
:010196002246
:02087100AD07D1
:10087300E4FB74807E00A803088006CEA2E713CEB3
:1008830013D8F8FFEDF582EF558224FF92B4D2B668
:0A089300C2B60BBB08DCD2B5C2B53B
:01089D002238
:0509F300C2B6C2B522EE
:1008EA00AA07AF05120871AF027480A80708800230
:1008FA00C313D8FCF4F5807F017E001209A275802B
:02090A00FF22CA
:0E08B8000C083F065B4F666D7D077F6F40802A
:10061B00EF14B40800505490063075F003A4C58352
:10062B0025F0C5837302064802064C0206500206EB
:10063B0054020658020660020668020670D2A480B5
:10064B000ED2A48012D2A48016D2A4801AC2A4D235
:10065B00A3D2A28016C2A4D2A3C2A2800EC2A4C2ED
:10066B00A3D2A28006C2A4C2A3C2A274082DF8E62C
:0D067B00F5807F017E001209A2E4F58022C7
:100947005389F0438901758A66758CFCC28DD28CF8
:07095700D2A9D2AFC2B92200
:10095E0075984043878053890F438920758BF475B2
:07096E008DF4C2ABD28E2212
:080003008F993099FDC299228A
:1009750053890F438910758B66758DFCC28FD28E96
:07098500D2ABD2AFC2BB22CE
:0300000002051DD9
:0C051D00787FE4F6D8FD75814302056488
:1003DA00C2D530F707B2D563F0FF05F030E70CB2AB
:1003EA00D5F4048463F0FF05F080018430D502F46B
:0203FA000422DB
:1003FC00BB010CE58229F582E5833AF583E02250B6
:10040C0006E92582F8E622BBFE06E92582F8E222FF
:0D041C00E58229F582E5833AF583E4932219
:10042900EF8DF0A4A8F0CF8CF0A428CE8DF0A42EE7
:02043900FE22A1
:10043B00BC000BBE0029EF8DF084FFADF022E4CCA5
:10044B00F875F008EF2FFFEE33FEEC33FCEE9DEC6E
:10045B00984005FCEE9DFE0FD5F0E9E4CEFD22EDB4
:10046B00F8F5F0EE8420D21CFEADF075F008EF2FFE
:10047B00FFED33FD4007985006D5F0F222C398FDEF
:05048B000FD5F0EA228C
:10052900020311E493A3F8E493A34003F68001F2D4
:1005390008DFF48029E493A3F85407240CC8C333D3
:10054900C4540F4420C8834004F456800146F6DFA2
:10055900E4800B010204081020408090089EE47E8C
:10056900019360BCA3FF543F30E509541FFEE49397
:10057900A360010ECF54C025E060A840B8E493A35E
:10058900FAE493A3F8E493A3C8C582C8CAC583CA89
:10059900F0A3C8C582C8CAC583CADFE9DEE780BE41
:0108C6000031
:00000001FF
