:10089500020D0000011100010B01011400020F00FF
:0B08A50000010C0002120000010A001C
:1003E200E4F5141209A8120A181206DF8F11E50BA0
:1003F200FB7A007525027D0F7F0112098BE50E4500
:100402000D70E6E514D3940A5018D297D2A2C29185
:10041200C294C296C2A1D290D293D292D295D2A0C5
:10042200D2A3E514C3940B401EE514940F5018D2C6
:1004320091D294D297D2A2C292C295D2A0D2A3C292
:1004420096C2A1D290D293E514C3940F401EE51434
:10045200941B5018D291D294C297C2A2D292D29532
:10046200D2A0D2A3D296D2A1C290C293E514C394D1
:100472001B401EE51494205018D291D294D297D2E8
:10048200A2D292D295C2A0C2A3D296D2A1C290C247
:1004920093E514D3942050030203EBE4F514020312
:0104A200EB6E
:03000B00020311DC
:04031100C0E0C0D0B8
:10031500758A66758CFC0509E509700205080513E3
:10032500E51370020512D39414E512940040096395
:100335000AFF751200751300C3E50994E8E50894F2
:10034500034018E50E450D700CE50C7008050B050E
:1003550014F508F509750800750900E514B40B03D3
:10036500750B01E514B40F03750B01E514B41B03FC
:10037500750B01E514B42003750B01E511640160EB
:1003850008E50E6401450D704F750C01750D00757E
:100395000E010510E5107002050FC39488E50F9452
:1003A50013400F750F00751000750D00750E007563
:1003B5000C00E50E6401450D701ED291D294D297C2
:1003C500D2A2D292D295D2A0D2A3C296C2A1C290F5
:0803D500C293E50A6002B2A523
:0503DD00D0D0D0E03299
:100A0300EF4E6010007D027CC7DCFEDDFCEF1F7043
:040A1300EF1E80EC66
:010A170022BC
:0908B000072A1A03130E2D370468
:050A4F00C2B5C2B62291
:050740002DFDEE3CFC64
:060745008C458D46AB0758
:10074B00D2B5E4FD74017E00A805088005C333CE45
:10075B0033CED8F9FFEBF582EF558224FF92B4D25A
:10076B00B6C2B60DBD08DDE4FD74017E00A8050818
:10077B008005C333CE33CED8F9FFE5455EFEE546A3
:10078B005F4E24FF92B4D2B6C2B60DBD08DBC2B524
:01079B00223B
:02079C00AD07A7
:10079E00E4F9430501D2B5FB74017E00A80308807D
:1007AE0005C333CE33CED8F9FFEDF582EF55822453
:1007BE00FF92B4C2B6D2B60BBB08DDE4FBD2B6C212
:1007CE00B630B40D7401A803088002C333D8FC42BE
:0B07DE00010BBB08E8C2B5C2B4AF01BC
:0107E90022ED
:10019700E4FDFC7F8E120745E52A75F00A1204A3D9
:1001A700FF3395E0FEEFC4F8540FC868FFEEC45460
:1001B700F048FEE52A75F00A1204A3ADF0ED339579
:1001C700E0FCEF7F8C120740E52B75F00A1204A3C1
:1001D700FF3395E0FEEFC4F8540FC868FFEEC45430
:1001E700F048FEE52B75F00A1204A3ADF0ED339548
:1001F700E0FCEF7F88120740E52C75F00A1204A394
:10020700FF3395E0FEEFC4F8540FC868FFEEC454FF
:10021700F048FEE52C75F00A1204A3ADF0ED339516
:10022700E0FCEF2DFDEE3CFC7F86120745E52D75C2
:10023700F00A1204A3FF3395E0FEEFC4F8540FC889
:1002470068FFEEC454F048FEE52D75F00A1204A3CA
:10025700ADF0ED3395E0FCEF2DFDEE3CFC7F841215
:100267000745E52E75F00A1204A3FF3395E0FEEF6C
:10027700C4F8540FC868FFEEC454F048FEE52E7565
:10028700F00A1204A3ADF0ED3395E0FCEF2DFDEE7F
:100297003CFC7F82120745E52F75F00A1204A3FF85
:1002A7003395E0FEEFC4F8540FC868FFEEC454F06E
:1002B70048FEE52F75F00A1204A3ADF0ED3395E083
:1002C700FCEF2DFDEE3CFC7F80120745E53075F015
:1002D7000A1204A3FF3395E0FEEFC4F8540FC86871
:1002E700FFEEC454F048FEE53075F00A1204A3ADE2
:1002F700F0ED3395E0FCEF2DFDEE3CFC7F8A120715
:0A030700457D807C007F8E020745D3
:100559007F8C12079CEFC4540F75F00AA4FEEF5468
:100569000F2EF52A7F8812079CEFC4540F75F00AE5
:10057900A4FEEF540F2EF52B7F8612079CEFC4546F
:100589000F75F00AA4FEEF540F2EF52C7F84120785
:100599009CEFC4540F75F00AA4FEEF540F2EF52DED
:1005A9007F8212079CEFC4540F75F00AA4FEEF5422
:1005B9000F2EF52E7F8012079CEFC4540F75F00A99
:1005C900A4FEEF540F2EF52F7F8A12079CEFC45417
:0C05D9000F75F00AA4FEEF540F2EF53051
:0105E50022F3
:1006DF00E4F52120B1137F14FE120A0330B1FD7F20
:1006EF00147E00120A0375210120B0147F147E00BE
:1006FF00120A0330B0FD7F147E00120A0375210227
:10070F0020B2147F147E00120A0330B2FD7F147ED4
:10071F0000120A0375210320B3147F147E00120AFE
:10072F000330B3FD7F147E00120A03752104AF213D
:01073F002297
:060A2C00C2A58F80D2A7D5
:080A32007F027EEFDEFEDFFC17
:010A3A002299
:0A0A3B00C2A6120A2CC2A7020A325A
:10096D00CFCDCFCECCCE1205047C007D0A1205046E
:04097D00ED2430FF36
:0A098100D2A6120A2CC2A7020A3205
:1009ED00AE07BE0104ED148006BE0209ED243F449E
:0609FD0080FF120A3B22FC
:100A18007F38120A3B7F0C120A3B7F06120A3B7F83
:040A280001020A3B82
:0A0A4500AC031209EDAF04020981B1
:060928008B428A43894462
:10092E001209EDE4FDAB42AA43A9448D8275830002
:0C093E001204C5FF60061209810D80E95B
:01094A00228A
:0C08C8007F0AEA24FFFDE434FFFC7E0000
:0808D4008E268F278C288D2948
:1008DC007F017E00E4FBEBC39529E5286480F87466
:0E08EC008098500AAC26AD271204F20B80E86B
:0108FA0022DB
:04098B008A238B240C
:10098F001209EDAA25EAD39400400D1208C8AC2332
:08099F00AD2412096D1A80ED70
:0109A700222D
:1007EA001209EDC3EA64809480400B7F2B120981C1
:1007FA008A368B37800E7F2D120981C3E49BF53729
:10080A00E49AF536AA35EAD39400400D1208C8AC2A
:09081A0036AD3712096D1A80EDAC
:0108230022B2
:040824008A3A8B3B46
:100828001209EDAA3CEAD3940040297F101208CAA5
:10083800AC3AAD3BCFCDCFCECCCE120504EF540FA2
:10084800FEC3940AEE5004243080022437FF1209B4
:04085800811A80D1B0
:01085C002279
:04085D008A3F8B4003
:100861001209EDAA41EAD394004028EA24FFFDE4ED
:1008710034FFFC7F027E001208D4AC3FAD40CFCDE7
:10088100CFCECCCE120504EF54012430FF120981E2
:030891001A80D2F8
:010894002241
:10000E00E4F5477590FFC2932097137F14FE120AF2
:10001E00033097FD7F147E00120A03754701209668
:10002E00147F147E00120A033096FD7F147E001298
:10003E000A037547052095147F147E00120A0330BB
:10004E0095FD7F147E00120A037547092094147FD4
:10005E00147E00120A033094FD7F147E00120A03F0
:10006E0075470D7590FFC2922097147F147E001273
:10007E000A033097FD7F147E00120A037547022093
:10008E0096147F147E00120A033096FD7F147E00B4
:10009E00120A037547062095147F147E00120A0378
:1000AE003095FD7F147E00120A0375470A209414C2
:1000BE007F147E00120A033094FD7F147E00120A14
:1000CE000375470E7590FFC2912097147F147E0022
:1000DE00120A033097FD7F147E00120A0375470340
:1000EE002096147F147E00120A033096FD7F147E34
:1000FE0000120A037547072095147F147E00120A1A
:10010E00033095FD7F147E00120A0375470B209471
:10011E00147F147E00120A033094FD7F147E0012A9
:10012E000A0375470F7590FFC2902097147F147EB7
:10013E0000120A033097FD7F147E00120A037547E2
:10014E00042096147F147E00120A033096FD7F144D
:10015E007E00120A037547082095147F147E001244
:10016E000A033095FD7F147E00120A0375470C209A
:10017E0094147F147E00120A033094FD7F147E00C7
:08018E00120A03754710AF4788
:010196002246
:0208FB00AD0747
:1008FD00E4FB74807E00A803088006CEA2E713CE29
:10090D0013D8F8FFEDF582EF558224FF92B4D2B6DD
:0A091D00C2B60BBB08DCD2B5C2B5B0
:0109270022AD
:050A5400C2B6C2B5228C
:10094B00AA07AF051208FBAF027480A80708800244
:10095B00C313D8FCF4F5807F017E00120A03758067
:02096B00FF2269
:0E08B9000C153F065B4F666D7D077F6F40801C
:10067200EF14B40800505490068775F003A4C583A4
:1006820025F0C5837302069F0206A30206A702068F
:10069200AB0206AF0206B70206BF0206C7D2A480AB
:1006A2000ED2A48012D2A48016D2A4801AC2A4D2DE
:1006B200A3D2A28016C2A4D2A3C2A2800EC2A4C296
:1006C200A3D2A28006C2A4C2A3C2A274152DF8E6C8
:0D06D200F5807F017E00120A03E4F580220E
:1009A8005389F0438901758A66758CFCC28DD28C97
:0709B800D2A9D2AFC2B9229F
:1009BF0075984043878053890F438920758BF47551
:0709CF008DF4C2ABD28E22B1
:080003008F993099FDC299228A
:1009D60053890F438910758B66758DFCC28FD28E35
:0709E600D2ABD2AFC2BB226D
:030000000205E610
:0C05E600787FE4F6D8FD75814702062DF1
:1004A300C2D530F707B2D563F0FF05F030E70CB2E1
:1004B300D5F4048463F0FF05F080018430D502F4A1
:0204C300042211
:1004C500BB010CE58229F582E5833AF583E02250EC
:1004D50006E92582F8E622BBFE06E92582F8E22236
:0D04E500E58229F582E5833AF583E4932250
:1004F200EF8DF0A4A8F0CF8CF0A428CE8DF0A42E1E
:02050200FE22D7
:10050400BC000BBE0029EF8DF084FFADF022E4CCDB
:10051400F875F008EF2FFFEE33FEEC33FCEE9DECA4
:10052400984005FCEE9DFE0FD5F0E9E4CEFD22EDEA
:10053400F8F5F0EE8420D21CFEADF075F008EF2F34
:10054400FFED33FD4007985006D5F0F222C398FD25
:050554000FD5F0EA22C2
:1005F2000203E2E493A3F8E493A34003F68001F23A
:1006020008DFF48029E493A3F85407240CC8C33309
:10061200C4540F4420C8834004F456800146F6DFD8
:10062200E4800B0102040810204080900895E47ECB
:10063200019360BCA3FF543F30E509541FFEE493CD
:10064200A360010ECF54C025E060A840B8E493A394
:10065200FAE493A3F8E493A3C8C582C8CAC583CABF
:10066200F0A3C8C582C8CAC583CADFE9DEE780BE77
:0108C7000030
:00000001FF
